:0300000002008873
:0C008800787FE4F6D8FD75810D020003BE
:10005400C290C291C292D293C294C295C296D297D0
:06006400D2A17F207E0303
:10006A00D3EF9400EE940040147D787C00ED1D706F
:0D007A00011CED4C70F7EF1F70E61E80E3D7
:010087002256
:10000300D290C291D292C293D294C295D296C29701
:10001300C2A1C2A27F147E00801920B31BC290C26A
:1000230091C292D293C294C295C296D297D2A17F23
:10003300207E0312006A80E220B20512005480F889
:1000430020B10512005480F820B00512005480F846
:01005300228A
:00000001FF
